:020000040800F2
:10000000C0ED0024395F0008F5F90208255F0008FB
:10001000255F0008255F0008255F0008000000003C
:100020000000000000000000000000000560000863
:10003000255F000800000000A15F0008454C010892
:100040000162000801620008016200080162000804
:1000500001620008016200080162000801620008F4
:1000600001620008016200080162000801620008E4
:1000700001620008016200080162000801620008D4
:1002A00001F0FF01102A2BDB10F0070F08D010F827
:1002B000013B013A8B422DD010F0070F42B3F6D12B
:1002C000F0B441EA012141EA014122F007047FF044
:1002D00000070023F0E80256083C85EA010586EA9B
:1002E000010685FA47F5A3FA87F586FA47F6A5FAD7
:1002F00087F68EB9EED1F0BC01F0FF0102F00702E3
:1003000032B110F8013B013A83EA010313B1F8D18D
:100310000020704701387047002D06BF354603386E
:10032000073815F0010F07D1013015F4807F02BFA7
:10033000013015F4C03F0130F0BC0138704700BFF8
:1003400081F0004102E000BF83F0004330B54FEA86
:1003500041044FEA430594EA050F08BF90EA020FF3
:100360001FBF54EA000C55EA020C7FEA645C7FEA86
:10037000655C00F0E2804FEA5454D4EB5555B8BFA9
:100380006D420CDD2C4480EA020281EA030382EA1A
:10039000000083EA010180EA020281EA0303362DAC
:1003A00088BF30BD11F0004F4FEA01314FF4801C7F
:1003B0004CEA113102D0404261EB410113F0004F91
:1003C0004FEA03334CEA133302D0524263EB430348
:1003D00094EA050F00F0A780A4F10104D5F1200EE6
:1003E0000DDB02FA0EFC22FA05F2801841F1000141
:1003F00003FA0EF2801843FA05F359410EE0A5F115
:1004000020050EF1200E012A03FA0EFC28BF4CF045
:10041000020C43FA05F3C01851EBE37101F00045FB
:1004200007D54FF0000EDCF1000C7EEB00006EEB08
:100430000101B1F5801F1BD3B1F5001F0CD3490892
:100440005FEA30004FEA3C0C04F101044FEA4452E9
:1004500012F5800F80F09A80BCF1004F08BF5FEA70
:10046000500C50F1000041EB045141EA050130BD50
:100470005FEA4C0C404141EB0101013C28BFB1F562
:10048000801FE9D291F0000F04BF01460020B1FAAD
:1004900081F308BF2033A3F10B03B3F120020CDA80
:1004A0000C3208DD02F1140CC2F10C0201FA0CF05E
:1004B00021FA02F10CE002F11402D8BFC2F1200CC3
:1004C00001FA02F120FA0CFCDCBF41EA0C01904079
:1004D000E41AA2BF01EB0451294330BD6FEA0404C2
:1004E0001F3C1CDA0C340EDC04F11404C4F12002AD
:1004F00020FA04F001FA02F340EA030021FA04F3BF
:1005000045EA030130BDC4F10C04C4F1200220FA15
:1005100002F001FA04F340EA0300294630BD21FA53
:1005200004F0294630BD94F0000F83F4801306BF19
:1005300081F480110134013D4EE77FEA645C18BF0D
:100540007FEA655C29D094EA050F08BF90EA020FA4
:1005500005D054EA000C04BF1946104630BD91EA9C
:10056000030F1EBF0021002030BD5FEA545C05D19F
:100570004000494128BF41F0004130BD14F58004DE
:100580003CBF01F5801130BD01F0004545F0FE4152
:1005900041F470014FF0000030BD7FEA645C1ABF87
:1005A000194610467FEA655C1CBF0B46024650EABE
:1005B000013406BF52EA033591EA030F41F40021EA
:1005C00030BD00BF90F0000F04BF0021704730B570
:1005D0004FF4806404F132044FF000054FF0000145
:1005E00050E700BF90F0000F04BF0021704730B506
:1005F0004FF4806404F1320410F0004548BF4042DB
:100600004FF000013EE700BF42004FEAE2014FEA2F
:1006100031014FEA02701FBF12F07F4393F07F4F0A
:1006200081F06051704732F07F4208BF704793F00D
:100630007F4F04BF41F40021704730B54FF4607420
:1006400001F0004521F000411CE700BF50EA010223
:1006500008BF704730B54FF000050AE050EA0102CC
:1006600008BF704730B511F0004502D5404261EB3C
:1006700041014FF4806404F132045FEA915C3FF47D
:10068000D8AE4FF003025FEADC0C18BF03325FEA1A
:10069000DC0C18BF033202EBDC02C2F1200300FACB
:1006A00003FC20FA02F001FA03FE40EA0E0021FAF0
:1006B00002F11444BDE600BF70B54FF0FF0C4CF4DE
:1006C000E06C1CEA11541DBF1CEA135594EA0C0F90
:1006D00095EA0C0F00F0DEF82C4481EA030621EACB
:1006E0004C5123EA4C5350EA013518BF52EA033506
:1006F00041F4801143F4801338D0A0FB02CE4FF0B8
:100700000005E1FB02E506F00042E0FB03E54FF0E7
:100710000006E1FB03569CF0000F18BF4EF0010EDF
:10072000A4F1FF04B6F5007F64F5407404D25FEADB
:100730004E0E6D4146EB060642EAC62141EA55518E
:100740004FEAC52040EA5E504FEACE2EB4F1FD0CD0
:1007500088BFBCF5E06F1ED8BEF1004F08BF5FEA4E
:10076000500E50F1000041EB045170BD06F0004600
:1007700046EA010140EA020081EA0301B4EB5C04AD
:10078000C2BFD4EB0C0541EA045170BD41F48011A5
:100790004FF0000E013C00F3AB8014F1360FDEBFCA
:1007A000002001F0004170BDC4F10004203C35DAA6
:1007B0000C341BDC04F11404C4F1200500FA05F329
:1007C00020FA04F001FA05F240EA020001F00042CA
:1007D00021F0004110EBD37021FA04F642EB060140
:1007E0005EEA430E08BF20EAD37070BDC4F10C046A
:1007F000C4F1200500FA04F320FA05F001FA04F22E
:1008000040EA020001F0004110EBD37041F1000119
:100810005EEA430E08BF20EAD37070BDC4F1200524
:1008200000FA05F24EEA020E20FA04F301FA05F28C
:1008300043EA020321FA04F001F0004121FA04F234
:1008400020EA020000EBD3705EEA430E08BF20EA04
:10085000D37070BD94F0000F0FD101F0004640003E
:1008600041EB010111F4801F08BF013CF7D041EAC0
:10087000060195F0000F18BF704703F000465200C4
:1008800043EB030313F4801F08BF013DF7D043EA95
:100890000603704794EA0C0F0CEA135518BF95EA4B
:1008A0000C0F0CD050EA410618BF52EA4306D1D1D2
:1008B00081EA030101F000414FF0000070BD50EAF1
:1008C000410606BF1046194652EA430619D094EA7B
:1008D0000C0F02D150EA013613D195EA0C0F05D165
:1008E00052EA03361CBF104619460AD181EA0301B9
:1008F00001F0004141F0FE4141F470014FF0000071
:1009000070BD41F0FE4141F4780170BD70B54FF00B
:10091000FF0C4CF4E06C1CEA11541DBF1CEA13558B
:1009200094EA0C0F95EA0C0F00F0A7F8A4EB05046D
:1009300081EA030E52EA03354FEA013100F0888064
:100940004FEA03334FF0805545EA131343EA12632D
:100950004FEA022245EA111545EA10654FEA0026E2
:100960000EF000419D4208BF964244F1FD0404F59B
:10097000407402D25B084FEA3202B61A65EB0305F7
:100980005B084FEA32024FF480104FF4002CB6EBB4
:10099000020E75EB030E22BFB61A754640EA0C0034
:1009A0005B084FEA3202B6EB020E75EB030E22BF74
:1009B000B61A754640EA5C005B084FEA3202B6EBB5
:1009C000020E75EB030E22BFB61A754640EA9C0074
:1009D0005B084FEA3202B6EB020E75EB030E22BF44
:1009E000B61A754640EADC0055EA060E18D04FEA02
:1009F000051545EA16754FEA06164FEAC30343EAA2
:100A000052734FEAC2025FEA1C1CC0D111F4801F6E
:100A10000BD141EA00014FF000004FF0004CB6E767
:100A200011F4801F04BF01430020B4F1FD0C88BF06
:100A3000BCF5E06F3FF6AFAEB5EB030C04BFB6EB11
:100A4000020C5FEA500C50F1000041EB045170BD04
:100A50000EF0004E4EEA113114EB5C04C2BFD4EB31
:100A60000C0541EA045170BD41F480114FF0000EB5
:100A7000013C90E645EA060E8DE60CEA135594EA31
:100A80000C0F08BF95EA0C0F3FF43BAF94EA0C0F34
:100A90000AD150EA01347FF434AF95EA0C0F7FF4A9
:100AA00025AF104619462CE795EA0C0F06D152EAFD
:100AB00003353FF4FDAE1046194622E750EA4106E1
:100AC00018BF52EA43067FF4C5AE50EA41047FF4F2
:100AD0000DAF52EA43057FF4EBAE12E74FF0FF3C57
:100AE00006E000BF4FF0010C02E000BF4FF0010C28
:100AF0004DF804CD4FEA410C7FEA6C5C4FEA430CA1
:100B000018BF7FEA6C5C1BD001B050EA410C0CBFEF
:100B100052EA430C91EA030F02BF90EA020F002051
:100B2000704710F1000F91EA030F58BF994208BFB8
:100B300090422CBFD8176FEAE37040F00100704775
:100B40004FEA410C7FEA6C5C02D150EA013C07D1CC
:100B50004FEA430C7FEA6C5CD6D152EA033CD3D017
:100B60005DF8040B704700BF8446104662468C4611
:100B70001946634600E000BF01B5FFF7B7FF002844
:100B800048BF10F1000F01BD4DF808EDFFF7F4FF6D
:100B90000CBF012000205DF808FB00BF4DF808EDF8
:100BA000FFF7EAFF34BF012000205DF808FB00BF1B
:100BB0004DF808EDFFF7E0FF94BF012000205DF83D
:100BC00008FB00BF4DF808EDFFF7CEFF94BF0120F2
:100BD00000205DF808FB00BF4DF808EDFFF7C4FFEB
:100BE00034BF012000205DF808FB00BF4A0011D28D
:100BF00012F5001211D20DD56FF47873B3EB625277
:100C00000ED44FEAC12343F0004343EA505323FA82
:100C100002F070474FF00000704750EA013002D1F7
:100C20004FF0FF3070474FF00000704780F00040F9
:100C300002E000BF81F0004142001FBF5FEA4103B4
:100C400092EA030F7FEA226C7FEA236C6AD04FEAB4
:100C50001262D2EB1363C1BFD218414048404140F9
:100C6000B8BF5B42192B88BF704710F0004F40F4AB
:100C7000000020F07F4018BF404211F0004F41F4C7
:100C8000000121F07F4118BF494292EA030F3FD093
:100C9000A2F1010241FA03FC10EB0C00C3F12003A6
:100CA00001FA03F100F0004302D5494260EB400035
:100CB000B0F5000F13D3B0F1807F06D340084FEAA0
:100CC000310102F10102FE2A51D2B1F1004F40EB95
:100CD000C25008BF20F0010040EA030070474900FD
:100CE00040EB0000013A28BFB0F5000FEDD2B0FA9A
:100CF00080FCACF1080CB2EB0C0200FA0CF0AABFBD
:100D000000EBC25052421843BCBFD040184370475A
:100D100092F0000F81F4000106BF80F40000013260
:100D2000013BB5E74FEA41037FEA226C18BF7FEA37
:100D3000236C21D092EA030F04D092F0000F08BF79
:100D40000846704790EA010F1CBF0020704712F060
:100D50007F4F04D1400028BF40F00040704712F19F
:100D600000723CBF00F50000704700F0004343F004
:100D7000FE4040F4000070477FEA226216BF08463A
:100D80007FEA23630146420206BF5FEA412390EAFD
:100D9000010F40F4800070474FF0000304E000BFF3
:100DA00010F0004348BF40425FEA000C08BF7047A4
:100DB00043F0964301464FF000001CE050EA010268
:100DC00008BF70474FF000030AE000BF50EA01027D
:100DD00008BF704711F0004302D5404261EB41016A
:100DE0005FEA010C02BF84460146002043F0B6438F
:100DF00008BFA3F18053A3F50003BCFA8CF2083AB4
:100E0000A3EBC25310DB01FA02FC634400FA02FCBC
:100E1000C2F12002BCF1004F20FA02F243EB0200C3
:100E200008BF20F00100704702F1200201FA02FC25
:100E3000C2F1200250EA4C0021FA02F243EB020018
:100E400008BF20EADC7070474FF0FF0C1CEAD0525C
:100E50001EBF1CEAD15392EA0C0F93EA0C0F6FD01D
:100E60001A4480EA010C400218BF5FEA41211ED0FB
:100E70004FF0006343EA501043EA5111A0FB0131E7
:100E80000CF00040B1F5000F3EBF490041EAD371BC
:100E90005B0040EA010062F17F02FD2A1DD8B3F138
:100EA000004F40EBC25008BF20F00100704790F0A7
:100EB000000F0CF0004C08BF49024CEA502040EAF9
:100EC00051207F3AC2BFD2F1FF0340EAC2507047BF
:100ED00040F400004FF00003013A5DDC12F1190FFD
:100EE000DCBF00F000407047C2F10002410021FA6F
:100EF00002F1C2F1200200FA02FC5FEA310040F187
:100F0000000053EA4C0308BF20EADC70704792F0FF
:100F1000000F00F0004C02BF400010F4000F013A37
:100F2000F9D040EA0C0093F0000F01F0004C02BF32
:100F3000490011F4000F013BF9D041EA0C018FE7A1
:100F40000CEAD15392EA0C0F18BF93EA0C0F0AD0A7
:100F500030F0004C18BF31F0004CD8D180EA0100CD
:100F600000F00040704790F0000F17BF90F0004F66
:100F7000084691F0000F91F0004F14D092EA0C0F48
:100F800001D142020FD193EA0C0F03D14B0218BFDB
:100F9000084608D180EA010000F0004040F0FE4021
:100FA00040F40000704740F0FE4040F440007047BD
:100FB0004FF0FF0C1CEAD0521EBF1CEAD15392EA3C
:100FC0000C0F93EA0C0F69D0A2EB030280EA010C2C
:100FD00049024FEA402037D04FF0805343EA1111C5
:100FE00043EA10130CF000408B4238BF5B0042F123
:100FF0007D024FF4000C8B4224BF5B1A40EA0C00C8
:10100000B3EB510F24BFA3EB510340EA5C00B3EBF9
:10101000910F24BFA3EB910340EA9C00B3EBD10FE7
:1010200024BFA3EBD10340EADC001B0118BF5FEA39
:101030001C1CE0D1FD2A3FF650AF8B4240EBC25062
:1010400008BF20F0010070470CF0004C4CEA502023
:101050007F32C2BFD2F1FF0340EAC250704740F472
:1010600000004FF00003013A37E792F0000F00F064
:10107000004C02BF400010F4000F013AF9D040EAE2
:101080000C0093F0000F01F0004C02BF490011F476
:10109000000F013BF9D041EA0C0195E70CEAD1536E
:1010A00092EA0C0F08D142027FF47DAF93EA0C0F55
:1010B0007FF470AF084676E793EA0C0F04D14B0239
:1010C0003FF44CAF08466EE730F0004C18BF31F0EB
:1010D000004CCAD130F000427FF45CAF31F00043E5
:1010E0007FF43CAF5FE700BF4FF0FF3C06E000BF7E
:1010F0004FF0010C02E000BF4FF0010C4DF804CDA1
:101100004FEA40024FEA41037FEA226C18BF7FEAB0
:10111000236C11D001B052EA530C18BF90EA010FB2
:1011200058BFB2EB030088BFC81738BF6FEAE17041
:1011300018BF40F0010070477FEA226C02D15FEADD
:10114000402C05D17FEA236CE4D15FEA412CE1D049
:101150005DF8040B704700BF844608466146FFE710
:101160000FB5FFF7C9FF002848BF10F1000F0FBDF2
:101170004DF808EDFFF7F4FF0CBF012000205DF8EB
:1011800008FB00BF4DF808EDFFF7EAFF34BF012070
:1011900000205DF808FB00BF4DF808EDFFF7E0FF09
:1011A00094BF012000205DF808FB00BF4DF808ED5A
:1011B000FFF7D2FF94BF012000205DF808FB00BFBD
:1011C0004DF808EDFFF7C8FF34BF012000205DF89F
:1011D00008FB00BF4FEA4002B2F1FE4F0FD34FF0C1
:1011E0009E03B3EB12620DD94FEA002343F0004394
:1011F00010F0004F23FA02F018BF404270474FF042
:101200000000704712F1610F01D1420205D110F0C8
:10121000004008BF6FF0004070474FF0000070477B
:1012200042000ED2B2F1FE4F0BD34FF09E03B3EB50
:10123000126209D44FEA002343F0004323FA02F07C
:1012400070474FF00000704712F1610F01D1420268
:1012500002D14FF0FF3070474FF00000704700BFE1
:101260007BB972B90029BEBF00204FF0004106E0F3
:1012700008BF00281CBF6FF000414FF0FF3000F0A6
:10128000AFBDADF1080C6DE904CE002909DB002BE0
:101290001ADB00F0D4FDDDF804E0DDE9022304B040
:1012A0007047404261EB4101002B1BDB00F0C7FDA2
:1012B000DDF804E0DDE9022304B0404261EB4101C6
:1012C000524263EB43037047524263EB430300F027
:1012D000B6FDDDF804E0DDE9022304B0404261EB35
:1012E00041017047524263EB430300F0A8FDDDF873
:1012F00004E0DDE9022304B0524263EB430370478C
:1013000053B94AB9002908BF00281CBF4FF0FF316C
:101310004FF0FF3000F064BDADF1080C6DE904CE74
:1013200000F08DFDDDF804E0DDE9022304B0704734
:1013300003685A004CBF43F0004323F000431844B5
:1013400070472DE9F0470646174641B301398846F4
:101350004FF0000909EB080404EBD474641006EBA9
:10136000C4052846FFF7E4FFA1424FEAC40A04D1AE
:10137000B84204D82846BDE8F087B84204D9A14550
:101380000DD004F1FF38E5E70AF108003044FFF71B
:10139000CFFF0138B842EDD204F10109DAE70025A8
:1013A000E8E7012806D0022806D00028034818BF25
:1013B000002070470248704702487047BD19000876
:1013C000C1190008C51900081F4B37B504468D1E0A
:1013D0004BB101A92846AFF3008048B9002309208A
:1013E000236103B030BD1948194B1B1ADB10019360
:1013F00001992A46FFF7A5FF01460028EED0FFF726
:1014000097FF4B68A064012B1AD0002B01F1040058
:1014100010DBFFF78DFF0023C4E913030368002BE3
:101420000ADAC3F30360FFF7BCFF03460028D5D0F8
:101430000020D5E70123EFE7FFF77AFF0346F7E740
:1014400000230520CCE700BF0000000098A304089B
:1014500098B204080368DA0710B5044605D49B0760
:1014600000F1480018D500F0F9FB2368590703D4B0
:1014700004F1D00000F0FAFB23681A0703D404F546
:10148000A87000F0FBFB2368DB0608D404F5E870C5
:10149000BDE8104000F036BC00F0D8FBE5E710BD19
:1014A000092070470346006800B118447047704730
:1014B00070B505460C46216C2846FFF785FF0646A9
:1014C00008B105F0E7F8236C6B6122462B692946C9
:1014D000012098470828EED00728F2D13046216C29
:1014E000FFF7E5FF201D00F0A5FB2DE9F0470C1DDF
:1014F000D0F80C90D0F818A0074616460FCCADF5E2
:10150000727D03AD0FC50FCC0FC50FCC0FC594E88E
:101510000F000DF1080885E80F000025C8F80050FD
:10152000D8F840103846FFF74FFF0936F6B20446A8
:1015300068BBD8F840307B614FF4F07241467AA81E
:1015400047F067FB3B697AAA394630469847889B43
:101550000546C8F844303A46CDE9008A3B46314654
:101560000120C847C0B9C4B94FF4F0727AA9404607
:1015700047F04FFB082D2646D2D0072D0CD1204630
:10158000D8F84010FFF793FF03A800F053FBD8F8FA
:10159000383046F01006DCE7092420460DF5727D50
:1015A000BDE8F087406C7047F0B5CB6B0B640D1D48
:1015B00006460F460FCDF9B001AC0FC40FCD0FC4D6
:1015C0000FCD0FC495E80F0084E80F004FF0FF33F4
:1015D000009310993046FFF7F7FE78B933696A46F1
:1015E0003146984708280446F3D06846FFF732FF93
:1015F000062C03D139463046FFF75AFF092079B04F
:10160000F0BD10B48261DA6BC16010BC1A64194677
:1016100000226AE770B5C66843690B6404460D464C
:1016200026B10122FFF761FF05F034F803690A468D
:10163000014602209847072805D00828F4D12946FA
:101640002046FFF735FF3046296CFFF730FF281D95
:1016500000F0F0FAC26802B9A6E7CA6B0A64002279
:1016600043E77047836801460BB101201847704774
:10167000012910B50446084605D005D9C81E012821
:101680008CBF0220012010BD43B90F2A06D804EBFD
:101690008204029A616811601846F4E70220F2E7BA
:1016A0001FB503AB009300230A461946FFF7E0FF7E
:1016B000039805B05DF804FB012910B504460846FF
:1016C00005D005D9C81E01288CBF0220012010BDFD
:1016D00043B90F2A06D8029904EB820409686160B5
:1016E0001846F4E70220F2E71FB503AB009300238E
:1016F00003920A461946FFF7DFFF05B05DF804FBC9
:10170000F0B5D36B1364141D06460F460FCCADF530
:101710000F7D17AD0FC50FCC0FC50FCC0FC594E8CB
:101720000F0085E80F004FF0FF33169326996846A7
:10173000FFF74AFE90B90C2116A86A46FFF7D4FFBE
:10174000394616A8B04748B9049B16AA694608202E
:1017500098470528044602D00928E7D1092416A88D
:10176000FFF778FE20460DF50F7DF0BD2DE9F04F17
:10177000CD6C87B0174655F8042B04950C4600F045
:1017800003099A463BBB12028DF8153003920323DE
:101790008DF81430236DB9F1020F08BFA56B13F05B
:1017A000010322D100F0080800932B6843BB03A972
:1017B000384600F0B9FC002840F0FB80009BDBB10C
:1017C0000F213846FFF76CFF0E2102463846FFF71F
:1017D0008BFF794A55E0130C8DF815301204DBB2FB
:1017E00005EB830503920223D2E703A9384600F0F4
:1017F0009BFC002840F0DD80082007B0BDE8F08F9A
:10180000BAF1020F0CBFD5F804B0B5F802B0A26C63
:1018100018BF2B8801930CBF05F108062E1D0F2160
:101820002BF0010538461544FFF73AFF8542019B2E
:1018300029D823F001022A44824294BF00220122C7
:101840004FEA4B0000F0020003F0010340EA0305F9
:10185000012D1AD0022D5ED0002D40F0AA80351D3A
:10186000B9F1000FA1D0002A9FD03046FFF760FDEC
:10187000A5630646204646F0DCFA002800F0998071
:1018800032460F213FE00022DAE7B9F1000F26D1FE
:10189000002A3DD073683268991C4FEAD27200F07A
:1018A000888004F158010133029109D0301DFFF7FF
:1018B000F9FD02AB0146204628F0C0F9054638B3D1
:1018C0000D213846FFF7ECFE022D029B206202D16B
:1018D000E36204F12C03C4E9093606208DE70D21EB
:1018E0003846FFF7DDFE256A854211D1A36A9E4284
:1018F0000ED13046FFF71CFD0F2102463846FFF798
:10190000F3FE224600213846FFF7EEFE072074E77B
:1019100006F1080549E7356825F00045B9F1000FE3
:101920002AD1A2B1B8F1000F19D085B9CB4617E082
:101930000BF1010B019B029306EB8B00FFF7B2FD4D
:101940000022014602AB204628F078F958B13368EE
:10195000002B00DA0436013506EB850525E7C34682
:1019600004F158030193AB45E2D10D213846FFF74E
:1019700097FE029B2062AEE70D213846FFF790FEEE
:10198000D4F820B08345E2D1A36A9E42DFD14FF064
:10199000000B0423C4E90BB3F318A5626363336837
:1019A0005B4503DA681C06EB8000A3E70123009384
:1019B000D1E7092021E700BFFD9C02080023D5E6FE
:1019C0000123D3E60223D1E62DE9F0410546C2B05A
:1019D00014461E46042925D8DFE811F005001C0036
:1019E0002400D6000401EEB9836B92B201210430C9
:1019F00001FA06F717421CBF53F8047B40F8267023
:101A00000136102EF4D1A60400D4AB63002042B0FE
:101A1000BDE8F081012E4FEA124794B204D13B1980
:101A2000102B41D90220F2E7052EFBD107EB040869
:101A3000B8F1200FF6D80F2F4DD9002CE6D003684F
:101A40005807A04608D5284623F0040340F8D03BA9
:101A500000F010F90F2F48D9684600F00BF9AB6B76
:101A6000102F3A4642A938BF102201EBC2024FEABA
:101A70004808A2F5C47208F1FF38101F4FEA880128
:101A800002EB88021C4654F804CB40F804CF824293
:101A9000F9D10A1D012E134417D00F2FAB636FD954
:101AA000684600F0E3F8B1E7102FBBD00368DA070F
:101AB00005D523F0030340F8483B00F0CBF820A8FD
:101AC00000F0C8F8AB6B002C3FD10433AB6320A807
:101AD00000F0BCF89AE7B8F1100F03682DD9DC07C5
:101AE000A8F1100842D45807ADD420A800F0BAF8E5
:101AF000C7F11004684600F0BDF8640020AAAB6B83
:101B000002EBC702013C101FA10002EB84021C463D
:101B100054F804CB40F804CF9042F9D10A1D134485
:101B2000B8F1000F9CD1012ECFD00F2FAB633FF641
:101B30006DAF20A800F092F868E7D9070DD420A86F
:101B400000F090F8AB6B002CF3D0640020AA02EBFD
:101B5000C702013C4FF00008D5E723F0010343F032
:101B6000020340F8483B00F07DF8E8E723F001036A
:101B700043F0020340F8483B00F074F82B68B2E7EA
:101B800020A800F06BF88BE7032E7FF44BAF97B2E1
:101B900007EB1244102C4FEA12463FF643AF03689E
:101BA000190706D523F00803036000F5A87000F0BC
:101BB00087F820A800F084F8AA6B20AB03EBC603DB
:101BC000F900D41A03EBC707BB4203EB040005D1AD
:101BD0000A44AA6320A800F051F817E7006843F808
:101BE000040BF1E7002E7FF41DAF102A3FF61AAF69
:101BF0000368DA0606D523F01003036000F5E870E9
:101C000000F08AF820AE304600F086F8AB6B002278
:101C1000012101FA02F020421CBF53F8040B46F8E0
:101C200022000132042AF4D1AB63304600F06AF896
:101C3000ECE600BF00F1340191E838009C46A6466E
:101C40004CF8045D90E8FF0FE54600BD90EC210BD9
:101C5000704700BF80EC210B704700BF90EC200B59
:101C6000704700BF80EC200B704700BFD0EC200B0A
:101C7000704700BFC0EC200B704700BFF0EC0201C2
:101C8000F0EC0211F0EC0221F0EC0231F0EC024138
:101C9000F0EC0251F0EC0261F0EC0271F0EC028128
:101CA000F0EC0291F0EC02A1F0EC02B1F0EC02C118
:101CB000F0EC02D1F0EC02E1F0EC02F1704700BF71
:101CC000E0EC0201E0EC0211E0EC0221E0EC023178
:101CD000E0EC0241E0EC0251E0EC0261E0EC027168
:101CE000E0EC0281E0EC0291E0EC02A1E0EC02B158
:101CF000E0EC02C1E0EC02D1E0EC02E1E0EC02F148
:101D0000704700BFB0FC0181B0FC0191B0FC01A1A3
:101D1000B0FC01B1704700BFA0FC0181A0FC0191A3
:101D2000A0FC01A1A0FC01B1704700BFEC4600B5CA
:101D30002DE900502DE9FF1F4FF000032DE90C00A5
:101D400001A9FFF731FCDDF840E012B0704700BF99
:101D5000EC4600B52DE900502DE9FF1F4FF00003C0
:101D60002DE90C0001A9FFF755FCDDF840E012B0A9
:101D7000704700BFEC4600B52DE900502DE9FF1F6C
:101D80004FF000032DE90C0001A9FFF763FCDDF81B
:101D900040E012B0704700BFEC4600B52DE900509E
:101DA0002DE9FF1F4FF000032DE90C0001ABFFF7F9
:101DB00028FCDDF840E012B0704700BFEC4600B5EB
:101DC0002DE900502DE9FF1F4FF000032DE90C0015
:101DD00001AAFFF795FCDDF840E012B0704700BFA4
:101DE000704700BF10F8012B11F8013B012A28BFF2
:101DF0009A42F7D0D01A7047034611F8012B03F826
:101E0000012B002AF9D17047034613F8012B002A51
:101E1000FBD1181A01387047430803F05533C01A34
:101E200000F03333800800F03330184400EB10101A
:101E30004FF0013300F00F305843000E70472DE98A
:101E4000F04786468C460846089E15467446194655
:101E5000002B40F0C2808542B2FA82F245D94AB1E5
:101E6000C2F1200300FA02FC2EFA03F3954043EA84
:101E70000C0C94404FEA154EA8B2BCFBFEF8230CA4
:101E80000EFB18CC08FB00F943EA0C43994528D90E
:101E9000EB1808F1FF3704D2994502D9A8F10207DF
:101EA0002B44A3EB0903A4B2B3FBFEFC0EFB1C33D3
:101EB0000CFB00F044EA0344A04214D92C190CF1A5
:101EC000FF3304D2A04202D9ACF102032C44241AFD
:101ED00043EA07401EB1D440002334607360BDE87C
:101EE000F0874746DDE76346F1E792BB431B0121DC
:101EF0004FEA154EAFB2B3FBFEFC200C0EFB1C33B9
:101F00000CFB07F840EA0343984562D9EB180CF143
:101F1000FF3004D2984502D9ACF102002B44A3EB68
:101F20000803A4B2B3FBFEFC0EFB1C330CFB07F74B
:101F300044EA0344A7424ED92C190CF1FF3304D2D2
:101F4000A74202D9ACF102032C44E41B43EA00404F
:101F5000C0E7C2F1200320FA03F1954090402EFA29
:101F600003F303434FEA154EAFB2B1FBFEFC0EFB89
:101F70001C10190C0CFB07F841EA0041884504FAD3
:101F800002F422D969180CF1FF3004D2884502D935
:101F9000ACF102002944A1EB08019BB2B1FBFEFCAD
:101FA0000EFB1C110CFB07F743EA01439F420ED9BD
:101FB000EB180CF1FF3104D29F4202D9ACF10201BF
:101FC0002B44DB1B41EA004192E76046E3E76146B0
:101FD000F7E76046A3E76346B7E7834206D916B939
:101FE000002108467BE7C6E900E0F9E7B3FA83F78A
:101FF0008FB9834201D3724508D8BEEB020460EB6F
:10200000030301209C461EB9002168E73846FAE721
:10201000C6E9004CF8E7C7F1200CBB4022FA0CF4EB
:102020001C432EFA0CF120FA0CF3B84001434FEA9E
:1020300014490EFA07F5B3FBF9F81FFA84FE09FB01
:1020400018300B0C08FB0EFA43EA00439A4502FADB
:1020500007F240D9E31808F1FF3004D29A4502D9BB
:10206000A8F102002344A3EB0A0389B2B3FBF9F8F9
:1020700009FB183308FB0EFE41EA03418E452CD9BB
:10208000611808F1FF3304D28E4502D9A8F102038A
:10209000214443EA0040A0FB0298A1EB0E01414518
:1020A000CE46434602D306D14D4504D2B9EB020ECB
:1020B00068EB04030138002EA6D0B5EB0E0261EBED
:1020C000030101FA0CFC22FA07F34CEA0303F9407E
:1020D000C6E9003198E74046C5E74346D9E7027AAA
:1020E00003467AB9427A82B1013A42724268111DBE
:1020F00012680260416003221A721A68100E1202FE
:102100001A607047013AD2B2F6E7B02070471FB5A7
:1021100003AB009300230C221946FFF7A9FA03989A
:1021200005B05DF804FBF2E72DE9F043054685B004
:102130000E464FF000083046FFF7D1FFB0280446A6
:1021400015D1B8F1000F0ED103AC43460E22414623
:1021500000942846FFF78CFA009443460F2241462C
:102160002846FFF7A9FA002005B0BDE8F083020673
:102170001DD4002303AF4FEA8009194600970D22B2
:102180002846FFF775FA5FFA89F9039B09F10409FC
:1021900014F0400F14BFA3EB09034B4403930097C3
:1021A00000230D2219462846FFF786FAC3E700F000
:1021B000F003802B18D104023046FFF790FF044350
:1021C000B4F5004F01D10920CEE724010023A2B2CB
:1021D00019462846FFF7F8FB0028F4D114F4004F05
:1021E00018BF4FF00108A6E7902B0DD100F00D03AA
:1021F0000D2BE8D003AF002300F00F020097194623
:102200002846FFF735FACAE7A02B13D1C34303F0E2
:1022100007034FF47F621A41030702F47F6201D57E
:1022200042F48042002319462846FFF7CDFB0028E0
:1022300081D0C8E7B02B46D1B12808D13046FFF78E
:102240004EFF431EDBB20E2B0246EBD9BBE7B22892
:1022500020D1002303AC0D22194600942846FFF735
:1022600007FA3046FFF73BFF022700F07F0110F02E
:102270008003039A01FA07F105D102F501720A44BD
:10228000039200948DE70A44304603920737FFF724
:1022900026FFEAE7B3280BD13046FFF720FF020301
:1022A00000F00F0002F47022013001230243BAE76C
:1022B00000F0FC03B42B86D000F0070201320123AA
:1022C00042F40022AFE7C02B44D1C6280AD13046E1
:1022D000FFF705FF020300F00F0002F47022013047
:1022E0000323E3E7C7280BD13046FFF7F8FE431E70
:1022F000DBB20E2B02463FF666AF0023042193E7C4
:1023000000F0F803C02B06D100F00F0201320323C6
:1023100042F4202287E7C8280DD13046FFF7DFFEC0
:1023200000F0F00200F00F0010320130052340EA07
:102330000232012178E7C9287FF445AF3046FFF724
:10234000CEFE020300F00F0002F4702201300523DC
:102350000243EEE700F0F803D02B7FF434AF00F037
:1023600007020132052342F40022E2E71FB50346CB
:102370000846DA6C536808321902019102921B0E6A
:10238000032201A98DF80C208DF80D30FFF7CCFE4B
:1023900005B05DF804FB08B5FFF7C5FE806C08BD0D
:1023A00008B5FFF7C0FEC06CC379023300EB8300B1
:1023B00008BD000082B0064B1B6801930198C0F372
:1023C0000B00B0F58A6F14BF0020012002B07047E7
:1023D0000010005C024A0260024A0260704700BFBF
:1023E0005CC70408B8C60408014B00221A60704795
:1023F000443D002400F5E47C0BE01A6800211960DC
:102400001346084A9342F8D1CCF81C200023CCF89C
:102410002030604504D0ACF14C0CDCF81C30F0E707
:10242000704700BF503D0024024A0260024A026029
:10243000704700BFB8EC040848C7040808B5084650
:1024400071B17BB1014608482CF0CBFD002383F32A
:102450001188BFF36F8F4FF00403184602DF08BDE9
:102460000248EEE7014BEDE798C0040890C004086D
:1024700010B50446044B0360044B036004213EF096
:1024800082FA204610BD00BF5CC70408B8C6040825
:1024900010B50446054B03603033836010302BF0D9
:1024A000F0FA034BA360204610BD00BFDCF2040825
:1024B00088C60408A0F10800EAE700BF10B504468A
:1024C000044B40F8283B2BF0DCFA034B23602046FA
:1024D00010BD00BFD4EB0408B8C6040810B504460C
:1024E000044B40F8083B2BF0CCFA034B236020460A
:1024F00010BD00BF10EB040870C6040810B40D4AEC
:1025000002600D4A0260002242600C4C04600C4CD8
:1025100084600C4C046030348460C26002614261AB
:10252000826181834FF0FF310162416280F828208F
:1025300010BC704728C6040844F30408CCF404080F
:1025400088C6040894F2040810B50446044B40F809
:10255000083B2BF0CBFA034B2360204610BD00BF95
:1025600024EC04082CC70408194B03600346194ADD
:1025700043F8082B0721002925DB30B400221A601C
:102580005A609A6000240025C3E904459A61DA6123
:102590001A625A62C3E90A451A635A639A63DA6394
:1025A0001A645A649A64DA641A655A6583F8582082
:1025B00083F85920013960330029DFDA0023C0F89D
:1025C000083330BC70470023C0F80833704700BFA1
:1025D0002CC7040824EC040810B586460A4B036097
:1025E00084460A4B4CF8043B094C0FCCACE80F0076
:1025F00023688CF800300023CEF81830CEF81C3059
:10260000CEF82030704610BDA0C6040814C70408D8
:10261000C0BD040810B50446044B40F8183B2BF02D
:1026200073FA034B2360204610BD00BF14C7040893
:10263000A0C6040810B50446064B40F8183B2BF022
:1026400063FA054B2360242120463EF09CF9204686
:1026500010BD00BF14C70408A0C6040808B5054B88
:102660004C2202FB0033186B10B13DF034FC08BD66
:102670000148FCE7543D0024C8C00408014B196020
:10268000704700BF443D002438B500F108030360E3
:1026900069B104460D460846FFF7B6FB4FF000034C
:1026A0002A18294620462BF045FA204638BD014815
:1026B00022F0F4FCD4C0040810B586B0044641F200
:1026C0000103038001234380022282800322C2800F
:1026D00048F20102028143810A23C3604FF20113D1
:1026E000038201AA0F491430FFF7CEFF02AA0E4958
:1026F00004F12C00FFF7C8FF03AA0C4904F14400C1
:10270000FFF7C2FF04AA0A4904F15C00FFF7BCFF0F
:1027100005AA084904F17400FFF7B6FF204606B089
:1027200010BD00BF08C1040834C1040850C104082A
:1027300070C1040880C1040810B582B0044641F29B
:1027400003030380012343800222828048F20102B6
:10275000C280038100238372064BC360C8230361D8
:102760006423436101AA04491830FFF78DFF204616
:1027700002B010BD0000484370C1040870B584B0B9
:102780000446EC468CE806001D46183004F58076B9
:10279000002222606260A060E660226162619CE8C3
:1027A00006002BF003FA0294084B039304AB13E9E1
:1027B000060030462BF02BFA2B68C4F83431043372
:1027C000C4F83831204604B070BD00BFCDD902082E
:1027D00010B50446044B40F8043B2BF037FA034B8A
:1027E0002360204610BD00BF78EA0408CCC6040868
:1027F00090F8B03003B9704710B50446002380F854
:10280000B030074B0360074B83601C33C3601C3040
:102810002BF055F9044BE360044BA36010BD00BFDF
:10282000C0F10408A8F50408A0C60408E4C604081A
:1028300090F8683003B9704710B50446002380F85B
:102840006830054B0360054B8360303044F0EFFE89
:10285000034BA36010BD00BF24F304089CF60408DA
:10286000E4C6040810B50446034B40F8183B2BF0AF
:1028700029FA204610BD00BFE0F1040808B590F821
:10288000383003B908BD002380F83830024B40F8D7
:10289000183B44F0CCFEF5E700F2040810B50446FE
:1028A000034B40F8083B2BF05AFA204610BD00BFFE
:1028B00020F2040810B50446074B40F8283B2BF0E3
:1028C00073FA04F118002BF065FA04F108002BF0FC
:1028D00057FA204610BD00BF40F2040810B500248E
:1028E00006E04C20044B00FB04302BF067FA013467
:1028F000052CF6D910BD00BF543D0024F8B5541A7C
:102900000AD405460E4621462BF05FFA28600719C7
:10291000AF6024B96F60F8BD034822F0EFFB224698
:10292000314646F084F9F5E7ACC1040830B583B010
:1029300071B30B46406B63332CBF4FF0010C4FF06B
:10294000000CC3F31302190D41EA0C311144134A70
:10295000A2FB0142D20802EB820202EB82028A1A37
:102960009B1A6CF1000C0E4A0E4903FB01F102FBAD
:102970000C11A3FB023211449A0842EA81728B08BF
:1029800000240025CDE9004517F08CFA03B030BDD6
:10299000406A383002213DF0B4FFF7E71F85EB5164
:1029A000295C8FC2F5285C8F00B583B00090054B81
:1029B000019302AB13E9060008302BF092FA03B042
:1029C0005DF804FBEDE1020870B582B00446002515
:1029D000056045608560C56000F11006014630461F
:1029E0002BF077FAE56125620C4BE3616462A56226
:1029F000E56225636563FF2384F848300094084B43
:102A0000019302AB13E9060004F124002BF0E9F96D
:102A10003046FFF7C9FF204602B070BD503D00248C
:102A2000E7E60208024A116801601060704700BFC3
:102A3000403D0024B0B170B588B08E4615460646BC
:102A40000DF1040C084C0FCCACE80F0094E8070023
:102A50008CE8070001AB2A46714630461BF03CF873
:102A600008B070BD704700BFD4BD040810B504465F
:102A700090F8383063B1002380F83830084B036099
:102A8000084B83601C33C360074BC360074B8360F4
:102A90002046FFF7CFFF012384F83830204610BDD1
:102AA000A0F1040820F50408A0C60408E4C6040840
:102AB0002DE9F04182B004460E461546571A836848
:102AC000D0F80080A3EB08039F4217D9002F12DB38
:102AD00013460A4639462BF0A6F905462068A16838
:102AE000091A08B13DF04FFF25603D446560A560BF
:102AF00002B0BDE8F081164822F000FB4368A3EB6A
:102B0000080297420BD82FB947446368BB42EFD005
:102B10006760EDE73A46404646F089F8F4E70191F0
:102B200001684FF00002591A01A82BF0F7FA226849
:102B3000019930462BF085F9666801996D1A02D12A
:102B40002E446660D4E72A46304646F070F8F7E730
:102B5000ACC10408F0B583B005460C461646A2EB9E
:102B6000010C836800681B1A9C4519D96746BCF1A3
:102B7000000F12DB13460A46614628462BF095F9F2
:102B800004462868A968091A08B13DF0FCFE2C60CB
:102B90003C446C60AC6003B0F0BD1A4822F0AEFA61
:102BA0006B681A1A944511D9019129684FF00002F7
:102BB000591A01A82BF0B6FA2A68019B1B1B12E0D8
:102BC00014F8013B00F8013B0CF1FF3CBCF1000F95
:102BD000F6DC6B688342DED06860DCE714F8011B2A
:102BE00002F8011B013B002BF8DC6B680199721A9B
:102BF00004E011F8010B03F8010B013A002AF8DC9C
:102C00006B60C8E7ACC1040810B50446144B036000
:102C100003F1280242603C338360D0F8CC11D0F835
:102C2000C8012BF0ECFAD4F8C831C4F8CC310D4B04
:102C3000236003F1280262603C33A360636A03E00F
:102C40001A68002119601346074A9342F8D162625C
:102C50000023A362054B6360054B2360204610BD33
:102C600070C7040884F40408503D00243CC60408DE
:102C700050C60408A0F10400C6E700BFF0B58BB051
:102C800004460DF1100C8CE80C0000F14407069787
:102C900000F5E276079600F53475089500F2D92321
:102CA000099308AB0293019606AB00939CE80C00D5
:102CB0001BF060FC0C4B236003F1280262603C3384
:102CC000A3604FF4C0720021384645F0CAFF304679
:102CD0002BF0AEFA0023C4F8D032C4F8D43284F812
:102CE000D83220460BB0F0BD70C70408012800D0D0
:102CF00070474FF6FF739942FAD170B586B001AABA
:102D00000024019402942E4B02932E4B03932E4EDB
:102D100003AB06CA3046FFF731FD04AB04940594BB
:102D20002A4A05922A4C0CCB05212046FFF7A6FF24
:102D3000284D2A46284920462CF062FE274A284979
:102D400028482BF02CF9284A284929482BF053F918
:102D5000284A294929482BF07AF9294A29492A4839
:102D60002BF0A1F9294A2A492A482BF0C8F92A4C04
:102D700031462046FFF782FC2A46284920462CF09F
:102D80003FFE274B1B6813F0010F0CD0254B1B682F
:102D900013F0010F05D1234B01221A60224B0022B0
:102DA0001A6006B070BD1E4B01221A601F4C2046EF
:102DB0002BF0B0F82A461E4920462CF021FEE5E70C
:102DC0002BDB0208E4C70408F44400247BDA020881
:102DD0001842002430460024092C000880AA002450
:102DE000E0C10408801D0024409A0024ECC10408BE
:102DF000B81C0024007A0024F4C10408F01B00244D
:102E0000C0690024FCC10408281B00248061002440
:102E100004C20408601A002414420024E9230008B4
:102E20004C3D0024483D0024503D0024543D0024E6
:102E3000F523000830B589B0044694461D4680F855
:102E40004810109B23B300F128030FAA92E8030057
:102E500083E803004FF0FF324FF0FF33CDE9062344
:102E6000042304930C9B0393002302930193009487
:102E70000A4B0E9A0D9960463DF03AF820632946B8
:102E80003DF026F804F138003DF035FD09B030BDC5
:102E900000228262C262024BC362DBE7D5E4020811
:102EA00049E702082DE9F041571A0F4B9F4216D807
:102EB00004460D461646F910A1B100222BF0C6F9C2
:102EC000206000EB0708C4F80880B54203D03A46FA
:102ED000294645F0ACFEC4F80480BDE8F081034803
:102EE00022F00CF90020EBE7F8FFFF7FACC10408EB
:102EF00038B505460C460022034920463DF0C1FA8C
:102F000065636C6338BD00BF4BDA020808B5134631
:102F10000A4619464FF04C0C024B0CFB0030FFF7F1
:102F2000E7FF08BD543D002430B587B0044690F853
:102F300020508269C1692846FFF7E8FF03AB04F11E
:102F40000C0292E8030083E80300A368029363681D
:102F500001936B1C0093E369626929464C24034882
:102F600004FB0500FFF766FF07B030BD543D0024A9
:102F700008B504E00268044B1A602BF076F9024BA6
:102F800018680028F6D108BD403D002410B586B071
:102F9000044611462BF03FFA80232372002363720C
:102FA0004FF290120C4901A82BF0C9F99DF814308A
:102FB0002BB99DF8143043B9204606B010BD02A9C4
:102FC00004F10C002BF081F9F3E700238DF81430A5
:102FD00002A82AF099FDEFE7AC3F002430B587B096
:102FE000044611462BF017FA8023237200236372E4
:102FF0000C4B1B788DF8143005AD03950123049319
:1030000001AB03AA92E8030083E803004FF000033A
:103010000DF11502294604F10C00FFF749FD204689
:1030200007B030BD186100240A68084B9A420BD0E3
:1030300010B5044608462BF03FFA08B100220260A2
:103040006368013B636010BD704700BF503D0024C2
:1030500010B50446064B40F81C3B616A2BF0BDFAE4
:10306000E168201D2BF07FFA024B2360204610BD43
:10307000E8EB0408F8C604082DE9F04389B00746D8
:103080008846109E8A60CB60EFF31189102383F38A
:103090001288BFF36F8FCDF810903146D8F8080032
:1030A0002BF053F8054603973B68019309E023464C
:1030B000314698682BF049F885420BDB039423686E
:1030C00001930F4A0592019C944203D0002CEED04C
:1030D000231FEDE7039B0693434606AA394602A841
:1030E0002BF08FFA3B6807930298984214BF002098
:1030F000012089F31188BFF36F8F09B0BDE8F08319
:10310000503D002410B50446064B40F8043B2AF01D
:103110009DFD054B2360102120463DF034FC2046E8
:1031200010BD00BF78EA0408CCC6040810B50446F8
:10313000064B40F8283B2AF0A4FC054B23603821BD
:1031400020463DF020FC204610BD00BFD4EB040813
:10315000B8C6040810B50446064B40F8083B2AF0F0
:1031600090FC054B23601C2120463DF00CFC2046C2
:1031700010BD00BF10EB040870C6040810B504466B
:10318000064B40F8083B2AF0B1FC054B23604FF496
:10319000447120463DF0F7FB204610BD24EC0408A6
:1031A0002CC7040810B50446044B0360044B0360AD
:1031B00014213DF0E8FB204610BD00BFB8EC040828
:1031C00048C7040810B50446074B036030338360DA
:1031D00010302AF056FC054BA360202120463DF01C
:1031E000D2FB204610BD00BFDCF2040888C60408EC
:1031F000A0F10800E6E700BF2DE9F047ADF5547DEA
:1032000002AF5D481EF078FA5C4A03215C482CF05E
:10321000DBFA6C4600233B7202237B7288B002AD5E
:1032200015F1100210D00E208AB104280FDD554B85
:10323000BB6000235BB99900143107F1080656F80A
:1032400023606E500133F5E76FF00040ECE7002398
:103250003B7102237B71CAB108280CDD4A4BBB606D
:10326000002343B99900183107F1080656F8236086
:103270006E500133F5E705F11C03002104E03E1D0B
:10328000765C03F8016B01310129F8D90D283EDD88
:103290000E233AB10021B960032139720121F9727C
:1032A000B86828610021032060F38811C3F30A0382
:1032B00063F353210023324801F00CFFA5462AF0A6
:1032C000D8FFFFF777F8054620B3DFF8C080304B12
:1032D000D3F800E06C4600233B7202237B728AB075
:1032E00002A911F1100218D04FF0120CC2B1BCF1BA
:1032F000040F15DD274BBB6000238BB99E001436ED
:1033000007F1080050F8230088510133F5E76FF00A
:103310001B03BEE7DFF88080D9E76FF0004CE5E7DC
:1033200000233B7102237B71002A3ED0E146BCF1B1
:10333000080F0CDDC7F80880002343B99800183047
:1033400007F1080656F823600E500133F5E7B9F18E
:103350000C0F0CDDC7F808E0002343B998001C30BF
:1033600007F1080656F823600E500133F5E701F126
:103370002003002017E000BF3BDA020834C2040833
:10338000D4BC04085CC204086CC2040810C204085F
:103390000010005C7CC2040820C204083E1D365C9C
:1033A00003F8016B01300128F8D9BCF1110F40F38B
:1033B000928212233AB10020B860042038720120B2
:1033C000F872B86808610021032060F38811C3F324
:1033D0000A0363F353210023CC4801F07BFEA5468A
:1033E0004422002107F5197045F03BFC47F21A739F
:1033F000A7F87C3247F21B73A7F8A03241F288335A
:10340000C7F8A43207F52A72C14907F51970FFF70A
:103410003BF987F8845207F52B72BE4907F52270F5
:10342000FFF732F9BC4B1B68BFF35B8F13F0010F42
:1034300000F054820023C7F85832C7F85C32C7F84E
:103440006032B64AA2F1180107F51670FFF72AFD9F
:10345000B34B1B68BFF35B8F13F0010F00F0538277
:10346000B04816F0CDFE0646AF4B1B68BFF35B8F2E
:1034700013F0010F00F05C82002E40F06D82AB4A29
:103480000221A2482CF0A0F9A94A03219F482CF060
:103490009BF9A84B1B68BFF35B8F13F0010F00F083
:1034A00099820421A44816F0BBFFA44A032197483F
:1034B0002CF08AF9A24B1B68BFF35B8F13F0010F4E
:1034C00000F09C829F4A032190482CF07DF99E4B8E
:1034D0001B68BFF35B8F13F0010F00F0B2823C2238
:1034E000002107F5077045F0BCFBB422002107F569
:1034F000B47045F0B6FB002E40F0B282934B1B68CF
:10350000BFF35B8F13F0010F00F0CD82904B1B686F
:10351000BFF35B8F13F0010F00F03A830C220F21F1
:103520008C4818F011F904466C22002107F1FC00C8
:1035300045F097FB254015F0FF0F40F03D83864A8C
:10354000032172482CF040F9844B1B68BFF35B8F5A
:1035500013F0010F00F04A83814A03216B482CF0DD
:1035600033F93C22002107F1C00045F07AFB002E20
:1035700040F058837B4B1B68BFF35B8F13F0010F48
:1035800000F0708307F19C03C7F894300023C7F85C
:10359000983087F89C30C7F8AC30A7F8B030A7F85F
:1035A000B230A7F8B430A7F8B630C7F8B83087F80B
:1035B000BC306D4907F1940044F0CEF90123C7F8FF
:1035C000AC3041F20102A7F8B02048F20102A7F89E
:1035D000B420A7F8B6304FF44073C7F8B8300223D0
:1035E00087F8BC3007F1940160481AF01BFB604A71
:1035F000032146482CF0E8F85E4B1B68BFF35B8F55
:1036000013F0010F00F043835B4C5C4920462AF025
:1036100041FA5B4920462AF089FD0023C7F8E832C9
:10362000C7F8EC32C7F8F032C7F8F432554BC7F898
:10363000F432554BC7F8F03207F53A73012241F2E4
:10364000040152481AF03AF907F53A702AF019FACB
:103650002E4C4F4A032120462CF0B6F84D4A032148
:1036600020462CF0B1F84C4B1B68BFF35B8F13F076
:10367000010F00F01F83494A032124482CF0A4F8CD
:10368000474B1B68BFF35B8F13F0010F00F02583DE
:10369000444B1B68BFF35B8F13F0010F00F03283C4
:1036A000414C424920461AF093FB414920461AF00A
:1036B0008FFB314920461AF013FB3E4A0321134881
:1036C0002CF082F897F8543223B197F81832002B77
:1036D00040F02C8397F86431002B40F03D83364A4C
:1036E00003210A482CF070F80123284A3349344852
:1036F0001AF074FF97F85432002B40F0338397F898
:103700001832002B40F036835CE000BFD4BC0408C4
:10371000ACC20408B4C2040814410024D0C7040891
:103720000041002404410024C4400024C4C2040811
:1037300058C30408A4400024A840002468C3040817
:103740006C40002488C304086840002464400024BE
:103750004C40002450400024A4C30408244000240A
:10376000C4C30408D03F0024E0C30408D43F0024AD
:10377000ECC30408A83F0024AC3F002410C4040894
:1037800024C404083FE402084DD90208184100246B
:1037900034C4040864C40408703F002484C40408CA
:1037A000403F00241C3F0024743F0024283F002495
:1037B0004C3F0024A0C40408B8C40408F4C10408A1
:1037C000184200240223C14AC149C2481AF006FF28
:1037D00097F8F830002B40F0D58297F86431002B31
:1037E00040F0D882BB4C0323BB4ABC4920461AF0A8
:1037F000F5FE0323BA4ABB4920461AF0EFFE032325
:10380000B94ABA4920461AF0E9FE0323B84AB94931
:1038100020461AF0E3FEB84A0321B8482BF0D4FF43
:10382000002E00F0BF8297F86431002B00F07C83FB
:10383000B24CB34A032120462BF0C6FF0821A5480D
:103840001AF076FDAF4A032120462BF0BDFF1DF094
:1038500027FFAD4B18615861FFF740F84FF0FF307C
:103860004FF0FF3115F020FF07F1940043F0DFFE29
:1038700007F1C000FFF702F807F1FC00FEF7D8FFE0
:1038800007F5B470FEF7B4FF97F854328BB10023FC
:1038900087F854329D4BC7F81C329D4BC7F8243231
:1038A0001C33C7F828329B4BC7F828329A4BC7F80D
:1038B000243207F516702AF0C9F907F5227043F093
:1038C000B6FE07F5197043F0B2FE002007F55277F7
:1038D000BD46BDE8F0876FF01B036BE58F481DF018
:1038E00011FF00283FF4A6AD8D4C07F51971204655
:1038F00018F0CAFA8B4A8C4920462CF081F8874888
:103900003DF046F896E589481DF0FCFE00283FF49E
:10391000A7AD874C07F51671204616F041FC814A89
:10392000844920462CF06CF880483DF031F897E54A
:1039300081481DF0E7FE00283FF49EAD7F4C804992
:10394000204616F0D7FD774A7E4920462CF058F8DD
:1039500079483DF01DF88FE5784816F0DFFD4FF00F
:1039600000082CE0784B53F8349003EBC40393F831
:1039700004A001225146484629F0D5FF0246CDF861
:1039800000A04B46214671482BF02BFB0134022C42
:10399000E8D9C8202AF061F8002409E06A4B03EB5B
:1039A000C4010022097953F8340029F0BCFF013426
:1039B000022CF3D9C8202AF050F808F10108B8F118
:1039C000020F01DC0024E2E7614A03214B482BF09F
:1039D000FBFE59E55F481DF095FE00283FF461AD00
:1039E0005D4C5E49204616F00BFD4E4A5C49204670
:1039F0002CF006F857483CF0CBFF52E559481DF033
:103A000081FE00283FF45EAD5748584B0360584B89
:103A1000036000230372C36000F108020261426187
:103A2000836180F82030436200F120028262C2622A
:103A300003633C4A4F492BF0E3FF4A483CF0A8FFA0
:103A400040E54D481DF05EFE00283FF448AD354A84
:103A50004A494B482BF0D4FF47483CF099FF3EE5DC
:103A6000DFF8BC90DFF8C8804A46414607F507708A
:103A7000FEF7FCFF07F108042046FEF71DFE0223B7
:103A80007B61394BC7F8B03207F52C730193009472
:103A90004B463B4A414607F5B4702AF0E1F8204610
:103AA0002AF00DF82AE537481DF02CFE00283FF4D7
:103AB0002DAD354C2046FEF757FD1A4A33492046B6
:103AC0002BF09EFF2F483CF063FF1FE528400024A9
:103AD000F4C4040818420024D43F00241CC5040880
:103AE000203F002428C50408743F002430C5040882
:103AF000443F00243CC5040844C50408D4BC040861
:103B0000D8C50408F8C50408F4440024A0F104084A
:103B100020F50408A0C60408E4C6040814410024E3
:103B2000184100243046002469C0010800410024E7
:103B300004410024D1270008C4400024C8400024C8
:103B4000B0C70408BD240008B8C7040804C30408AB
:103B500030C30408A4400024A840002448B6040848
:103B6000DD2400086C40002470400024F8C60408DE
:103B7000E8EB04085130000868400024D523000811
:103B800048090024644000245017002449250008F7
:103B9000B9481DF0B7FD00283FF4C0ACB74CB84998
:103BA000204617F0C1FDB74AB74920462BF028FF41
:103BB000B1483CF0EDFEB1E407F108042046FEF701
:103BC000BBFD0F23BB74B14BC7F8B43207F52D739F
:103BD00001930094AE4BAF4AA84907F1FC002AF0CC
:103BE00058F807F1200043F022FDA8E4AA481DF090
:103BF00089FD00283FF4B0AC07F52E73A74A07CA29
:103C000003C31A80A64C07F52E72A249204619F06C
:103C1000B5FF9C4AA34920462BF0F2FE9E483CF09B
:103C2000B7FE99E44FF47A73C7F8C43207F53872D7
:103C30009D4907F53270FEF727FD944BC7F8E43233
:103C400007F53973019307F531730093904B944A4C
:103C5000964907F1C0002AF03FF807F5327043F0AB
:103C6000E6FC87E492481DF04DFD00283FF48AAC45
:103C7000904C884A9049204619F0C6FF814A8F49E6
:103C800020462BF0BDFE8A483CF082FE7AE48C4848
:103C90001DF038FD00283FF4B7AC8A4C2046FEF7F3
:103CA0009BFC784A884920462BF0AAFE84483CF0C9
:103CB0006FFEA9E485481DF025FD00283FF4DBAC2C
:103CC000834C204619F0F6FF6E4A824920462BF0BD
:103CD00097FE7E483CF05CFECDE47F481DF012FD6F
:103CE00000283FF4D5AC7D4C43F258412046FEF706
:103CF00005FC644A7A4920462BF082FE76483CF067
:103D000047FEC5E477481DF0FDFC00283FF4C8AC31
:103D1000754C694920461AF039FA5A4A73492046C7
:103D20002BF06EFE6F483CF033FEB9E407F50A71E4
:103D3000204619F0D5FF07F5BA71204619F0D0FFDB
:103D40006B4C07F5097120461CF020FC07F5B87193
:103D500020461CF01BFCBDE407F5827164481CF092
:103D600015FCBCE4022307F50772624962481AF0A9
:103D700035FCC4E4022307F5B47260495E481AF0CA
:103D80002DFC1FE5022307F1C0025D495A481AF0D5
:103D900025FC22E5022307F1FC025A4956481AF095
:103DA0001DFC1FE507F10800FEF786FC0024C7F89C
:103DB000F842C7F8FC42C7F80043C7F8044307F1CC
:103DC0000803C7F8F832504BC7F804334F4BC7F815
:103DD0000033304D07F53E737A893989284619F04A
:103DE0006DFD07F53E7029F04CFEC7F80843C7F893
:103DF0000C43C7F81043C7F8144307F10803C7F88A
:103E00000833434BC7F81433424BC7F8103307F558
:103E10004273BA893989284619F050FD07F5427076
:103E200029F02FFEC7F81843C7F81C43C7F82043F2
:103E3000C7F82443384BC7F82433384BC7F820332E
:103E400007F54673FA893989284619F037FD07F5D1
:103E5000467029F016FE7B8A3A8A3989284619F07D
:103E600007FC2F4A03212F482BF0AEFC07F1080076
:103E700029F025FED7E400BF4C4000245040002428
:103E8000E8B50408304600242924000870400024C6
:103E9000501700241841002424400024F0BD0408D9
:103EA000284000246528000870C10408C840002488
:103EB000D03F0024D43F0024A84000249D280008BF
:103EC000A83F0024AC3F002415260008703F0024C2
:103ED000743F0024B5280008403F0024443F0024DC
:103EE000C5DE01081C3F0024203F00249124000867
:103EF00030400024DCC4040818420024E8C404084C
:103F000004C5040810C5040875E70208F5D90208BD
:103F100081E7020827DA02084BE402086DD902089B
:103F200068C50408D4BC040807F10800FEF704FCC7
:103F30000024C7F82843C7F82C43C7F83043C7F814
:103F400034431D4BC7F834331C4BC7F830331C4D7A
:103F500007F54A737A893989284619F0AFFC07F5C5
:103F60004A7029F08EFDC7F83843C7F83C43C7F8BC
:103F70004043C7F84443134BC7F84433124BC7F8C8
:103F8000403307F54E73BA893989284619F096FCF3
:103F900007F54E7029F075FD3B8AFA893989284664
:103FA00019F066FB094A032109482BF00DFC07F1C3
:103FB000200043F03CFB3BE497E402088DD9020863
:103FC00018410024A3E40208ADD902089CC50408E6
:103FD000D4BC04082DE9F04389B0044616461B4AB8
:103FE0001078012313700A68B2F80080B2F80890C4
:103FF0008DF81C008DF81D3007AF0597022306933E
:104000006B4605AA92E8030083E8030000250295A9
:10401000039504954FF000030DF11E02394602A8E6
:10402000FEF76CFC02AB4A464146094818F0A0FC7A
:1040300002A829F069FD314620462AF0ECF98023D8
:1040400023726572204609B0BDE8F0831861002430
:10405000184100242DE9F04389B0044616461B4B55
:104060001A7800251D700B68B3F80080B3F808902B
:104070008DF81C208DF81D5007AF0597022306937D
:104080006B4605AA92E8030083E8030002950395B6
:1040900004954FF000030DF11E02394602A8FEF709
:1040A0002DFC02AB4A464146094818F061FC02A8C3
:1040B00029F02AFD314620462AF0ADF980232372EB
:1040C0006572204609B0BDE8F08300BF1861002486
:1040D00018410024C0434FF0000C944519D230B56C
:1040E00011F80C3083EA000E0EF00F0E0A4C54F853
:1040F0002E5085EA101080EA131303F00F0354F8D2
:10410000233083EA10100CF1010C9445E8D3C0432E
:1041100030BDC043704700BFE8C704082DE9F04F29
:1041200097B000AF8346BA617B61D7F88030C3F3A4
:10413000C0033B62396111B92AF0CFFE38619BF8A8
:104140000260B14636B1D7F8803013F0010F0ED1BE
:10415000002300E0002319469BF803207A6242B155
:10416000D7F8802012F0020F22D1002202E00123B2
:10417000F1E7002213431DD09BF80050AB00BB6059
:10418000DBF80430FB600BEB8505BB69F3B100295C
:1041900040F01781B9F1000F00F02281D7F880308C
:1041A00013F0040F40F020810020F86106460CE176
:1041B0000122DFE7BB691BB17A6939695846984724
:1041C0003C6920465C37BD46BDE8F08F3C69E1B9EB
:1041D0004D4400237B6123E00444013501364E4504
:1041E0001AD22A7800235BF822201946B8692AF0EF
:1041F00089FED7F88830BAF1000F18BF9845EBD286
:104200002AF8180008F10108E6E70026C7F81C8024
:10421000B046D7F884A0E2E7C7F81480D7F81C802E
:10422000D7F8803003F005033B614FF0000AA14648
:10423000C7F81CB0AFE000253B6A93B9002D00F031
:104240008D80D7F8803013F0010F40F08C803B69EF
:10425000002B40F081800223A9EB030998E001259F
:10426000EAE75946F8682AF093FE0028E6D06C4643
:10427000002387F82C30022387F82D308AB0694656
:1042800011F1100251D01225131E18BF0123284628
:10429000042DD4BF4FF0000C03F0010CBCF1000F53
:1042A00001D0B44D4D61002587F82850022587F8CC
:1042B00029500828D4BF002503F001050DB1FD6881
:1042C0008D610C28D4BF002303F001030BB1C1F8AA
:1042D0001CB06ABB11283CDD122362B1042087F8B0
:1042E0002C00002087F82D0087F82E00012087F889
:1042F0002F00F86A08616FF300086FF341086FF34D
:1043000082086FF3C508022161F38818C3F30A031A
:1043100063F353286FF31F5800234146964800F07B
:10432000D9FEA546A9F1020932E06FF00045ABE7DE
:1043300001F12003002509E005F1300C07F1280EFA
:10434000F4441CF830CC03F801CB0135012DF3D92E
:10435000C0E76FF01B03C0E701237DE7D7F880308B
:1043600013F0020F14D0002322461946B8692AF030
:10437000C9FDD7F884207B69D7F88810002A18BFB8
:104380008B4203D222F8130001337B610138814450
:104390000AF1010A35467B6A9A4510D22E4616F874
:1043A00002BB6B78FA6952F82340744B9C42FFF4CD
:1043B00042AF734B9C42FFF452AF00253CE74C46A2
:1043C000FFE607F144000023FB6118B14A46294685
:1043D00044F01FFC4D444FF00008C7F804901EE065
:1043E0000020F8610646F0E7FE6107F13400002680
:1043F000EBE700253B6A33BB002D3BD0D7F880307C
:1044000013F0010F26D0731C06F1300207F12801CA
:10441000561806F8149CDEB208F1010825467B6A9E
:1044200098454AD22C4614F802AB95F801905BF8F7
:104430002930524A9342DCD3514A934201D300259A
:10444000D8E70125D6E75146F8682AF0A1FD0028F3
:10445000D2D0E1E7D7F8803013F0040FDCD0FA694E
:10446000531C303207F128010A4402F8249CDBB2C5
:10447000FB61D1E7D7F8803013F0020F09D0731C2D
:1044800006F1300207F12801561806F8149CDEB236
:10449000C2E7F869431C00F1300107F128028A18CD
:1044A00002F824AC02460232D2B2FA6107F1580295
:1044B00052FA83F303F8249CAEE7D7F804909BF8F4
:1044C000003087F854309BF80130334487F855307A
:1044D000D7F8803013F0020F0ED1FB69C3F3470306
:1044E00087F85730D7F8803013F0010F06D113F05A
:1044F000040F3DD1002302E00023F1E7002387F8F9
:104500005630DBF800003863786DCBF80000D7F840
:1045100014804246B9685846D7F818A0D047041E00
:10452000FFF64FAE386BCBF80000C7F81480424658
:10453000F96907F13400D047B0F1000856DBA04418
:10454000B96849447B6A01EB4301D7F814904A46A5
:104550003B69591A2846D047041EFFF632AEA044E4
:1045600000257E62C7F820B05646D7F884B01DE01B
:10457000FB69C4E728C80408FCBC040898B2040816
:10458000B42C05084FF0000A4A46012107F12C001F
:10459000B04700282CDB804453462246494630462B
:1045A0002AF0B0FC002825DB804401357B6A9D425F
:1045B00015D205F1300307F12802134413F8143C17
:1045C00087F82C303A6A52F82340D7F88830BBF18C
:1045D000000F18BF9D42D5D23BF815A0D4E77A69E9
:1045E00000210846BB6998474446EAE54446E8E5A9
:1045F0000446E6E50446E4E508B5024B1B68984727
:1046000008BD00BF4C090024014B1860704700BF73
:104610004C09002400B585B00A460023009301939D
:104620000293039302238DF80230044B0193014659
:10463000684628F0BDF905B05DF804FBF9450008AF
:1046400080B505460E461746984615F093F8034682
:1046500044F006FE0446DFF8189049F80030424660
:1046600039463046A84754F8090001F07FFC00BFE6
:104670000800000000B544F0F3FD034B16221A5069
:104680004FF0FF305DF804FB0C00000000B50F2870
:104690000DD800EB400000010830BFF35B8F0C4BDE
:1046A0001B58BFF35B8F53B100205DF804FB44F04F
:1046B000D7FD084B09221A504FF0FF30F5E744F0C0
:1046C000CFFD044B09221A504FF0FF30EDE700BF39
:1046D000500900240C00000000200F280CD800EB2B
:1046E00040031B010833BFF35B8F094AD358BFF364
:1046F0005B8F5BB10130F0E700B544F0B1FD054BD5
:1047000017221A504FF0FF305DF804FB704700BFCE
:10471000500900240C00000000B5034603EB4302DF
:1047200012010832144902EB010CBFF35B8F8A5867
:10473000BFF35B8FEAB1501EBFF35B8F5CE8001FD5
:10474000914204D14CE8000EBEF1000FF6D1BFF348
:104750005B8FE3D1012A0AD1074A03EB4301090128
:104760000020505003EB430302EB031250605DF84E
:1047700004FB1046FBE700BF5009002400EB40009B
:1047800003010833064A1344BFF35B8F53E8000F5D
:10479000013043E80002002AF8D1BFF35B8F704775
:1047A0005009002470B504460E461546FFF76EFF0B
:1047B000002813DB04EB4402094B03EB02135B6894
:1047C00033602DB113010833054A134404332B60C1
:1047D00004EB44042401024B185970BD0020FCE78F
:1047E0005009002470B54FF0FF324FF0FF331348EB
:1047F00014F00AF8FFF770FF041E04DA0F4814F0F3
:1048000083F8204670BD2046FFF7B8FF0C4E6500C8
:1048100004EB4403190106EB0313002272505A60A3
:104820009A6208460830304404303BF07EF828197C
:104830000001203030443BF01EFBDFE7441500242C
:104840005009002470B504461546154804EB44028F
:104850004FEA021C00EB021240F80C105560D362C4
:10486000CDB1EB68BBB144F0FBFC0E4B1E5804EB22
:1048700044031B0108330A4A1344043340F205126F
:1048800028462AF0D8FB5F2E05D044F0E9FC054B02
:104890001B585F2B00D070BD024B1E50FBE700BFC2
:1048A000500900240C000000F8B50446FFF7EEFEA6
:1048B000002832DB660004EB44052D010835184F53
:1048C0003D4404354FF0FF324FF0FF33284613F0DC
:1048D0009BFF264407EB06177B689E68DEB104EB5E
:1048E0004402FB6A13F4404F0DD0130121460C4AD9
:1048F000D058B0470646284614F006F820462AF05D
:10490000AAFB3046F8BD04EB44031B01044AD0580F
:10491000B0470646EFE70026EDE74FF0FF36F0E739
:104920005009002408B53BF03DFD0022431819D280
:1049300013440D4AA2FB03CE2EF0030C0CEB9E0C8D
:10494000A3EB0C03C01A61F100014FF0CC3300FB64
:1049500003F302FB0133A0FB02021344400840EAC8
:10496000C37008BD0122E3E7CDCCCCCC054B5A681F
:1049700042F002025A605A6842F001025A60002076
:10498000704700BF0010005C82B0164BD3F8E020E7
:1049900042F00072C3F8E020D3F8E02002F0007289
:1049A0000192019AD3F8F42042F00202C3F8F420F5
:1049B000D3F8F43003F002030093009B0A4BD3F8C2
:1049C000043313F0010F05D0084BD3F890300020CA
:1049D00002B07047034AD2F8A03043F00803C2F88F
:1049E000A030F4E700440258000400580064025864
:1049F0000C4B0D4A1A600D4AD36823F03F0343F075
:104A00000403D3600A4B1A6841F20303B3EB124F5D
:104A100000D07047074AD2F8083143F00103C2F8CA
:104A20000831F6E7B01300240090D0030048025884
:104A30000010005C0080005138B505460B4C00E0CA
:104A400010340B4B9C420FD263685B79002BF7D07C
:104A5000294620462AF01EFE0028F1D023681B6854
:104A6000294620469847EBE738BD00BFACBD040897
:104A7000BCBD040870B506460D46084C04E02A4645
:104A80003146204698471034054B9C4204D2236897
:104A90009B69002BF3D1F6E770BD00BFACBD0408E5
:104AA000BCBD040808B53BF07DFC0022431819D2B8
:104AB00013440D4AA2FB03CE2EF0030C0CEB9E0C0C
:104AC000A3EB0C03C01A61F100014FF0CC3300FBE3
:104AD00003F302FB0133A0FB02021344400840EA47
:104AE000C37008BD0122E3E7CDCCCCCC2DE9F04169
:104AF000074605460AE007EA0807144B03EB0613CE
:104B00005B680422196820462AF0F5FDD5B195FAB4
:104B1000A5F6B6FA86F60D4C04EB06140123B34055
:104B20006FEA030825EA0305237B002BEED033014F
:104B3000064AD3581B69002BDDD020469847002831
:104B4000E4D1D8E73846BDE8F08100BFACBD040829
:104B50002DE9F04180460F461F4BBFF35B8F53E8B2
:104B6000005F6A1C43E800210029F8D1BFF35B8F86
:104B70006DBB1A4C002607E06368042219682046C2
:104B80002AF0B9FD01361034154B9C4211D2237B1B
:104B9000002BF7D020462AF071FD23681B69002BFB
:104BA000EAD0204698470028E6D00123B3401D43B1
:104BB000E8E7B8F1000F0BD055B12846FFF796FF94
:104BC0000546002FF8D00A202AF066FDF4E70025FC
:104BD0002846BDE8F08100BF48460024ACBD04086B
:104BE000BCBD040808B5064B186018B1054B1B681E
:104BF000092B00DC08BD044813F016FFFAE700BFDC
:104C00003C460024444600243416002408B50248DB
:104C100013F00AFF08BD00BF3416002430B589B078
:104C200000220F490F483BF02CFC0F4D00220023BF
:104C3000CDE90623002404940E23039302940194E7
:104C400000940A4B4FF44072094928463BF050F952
:104C5000084928463BF03CF9204609B030BD00BF6A
:104C60000D4C0008E02E0024481E0024FD4F0008D3
:104C7000C0B200246CC90408014B53F820007047EF
:104C800088C9040848B108B5054A1060054B196089
:104C9000084600F0CBFC002008BD6FF015007047FF
:104CA000500C00243846002408B5054B1B781BB176
:104CB000034B01221A7008BD024813F0B5FEF7E756
:104CC000196100243416002408B5104BBFF35B8F24
:104CD00053E8001F013143E80012002AF8D1BFF366
:104CE0005B8F30B90A483BF0D8FB0A4813F09CFEB2
:104CF00008BD094BBFF35B8F53E8001F013943E840
:104D00000012002AF8D1BFF35B8FEBE74046002486
:104D1000E02E00243416002444460024064B0020D4
:104D20000146BFF35B8F53E8000F43E80012002AEF
:104D3000F9D1BFF35B8F70474046002438B5FFF7C9
:104D4000EDFF0546094C00E01034094B9C420BD2A4
:104D500063685B79002BF7D023685B68002BF3D086
:104D6000294620469847EFE738BD00BFACBD040890
:104D7000BCBD0408034B18680028D4BF00200120E4
:104D8000704700BF4046002410B5044C044920463B
:104D90002AF0BEFA034B1C6010BD00BF5C14002457
:104DA00074C904083446002408B500230C4A137063
:104DB0000C4A13600C4A13604FF47A710B48FFF7EA
:104DC00061FFFFF7E1FF0A4A06E0094BD31A1B1106
:104DD000013351680B711032064B9A42F5D308BD6E
:104DE0001A6100244046002444460024A54A0008D5
:104DF000ACBD0408BCBD040808B5014601482AF052
:104E00005BFC08BD5C14002408B502482AF063FB73
:104E100008BD00BF5C14002408B50146024B1868A9
:104E20002AF050FC08BD00BF3446002408B50248F3
:104E30002AF04CFC08BD00BF5C14002410B582B001
:104E400000220023CDE900232C4B187808B902B0CA
:104E500010BD68462AF043FC044680B1FFF7ECFD24
:104E60002046FFF7D9FF264BBFF35B8F53E8001FA7
:104E7000013943E80012002AF8D1BFF35B8FFFF736
:104E800079FF58B91F4A1368516813F57A7341F1D5
:104E9000000113605160FFF7C9FFD8E73BF082FAC9
:104EA0000022431827D21344174AA2FB034C2CF0CC
:104EB000030404EB9C041B1BC01A61F100014FF0BA
:104EC000CC3300FB03F302FB0133A0FB02021344CB
:104ED000400840EAC3705B080A490A684968801ABA
:104EE00063EB010340F2E932904273F10003C9D34E
:104EF000FFF724FFC6E70122D5E700BF19610024B0
:104F000044460024D82E0024CDCCCCCC0F4B1B78AB
:104F100003B1704710B500210120FFF719FE0C4CBA
:104F200000E010340B4B9C4208D263685B79002B85
:104F3000F7D023689B6820469847F2E7FFF77EFF8B
:104F40000028FBD1014B01221A7010BD1A61002408
:104F5000ACBD0408BCBD040810B582B01A4BBFF349
:104F60005B8F53E8002F511C43E800100028F8D154
:104F7000BFF35B8F154B1B7863B9154B1B68B3B13F
:104F8000BAB1092A13D113483BF087FA124813F03B
:104F90004BFD0CE0EFF31184102383F31288BFF371
:104FA0006F8FFFF74BFF84F31188BFF36F8F02B051
:104FB00010BD00220023CDE9002342F2107200232D
:104FC000044814F06FFFF2E7444600241A610024FD
:104FD0003C460024E02E00243416002410B504467C
:104FE000044B1B689847A060214603482AF07BFBCE
:104FF00010BD00BF500C00245C1400242DE9F041CA
:1050000000210846FFF7A4FD804650B14FF4FA7620
:10501000002744F025F9154B1858FFF7E3FD00254C
:1050200015E04FF0FF364FF0FF37F2E74046FFF74D
:105030005DFD804670B94FF0FF364FF0FF3709E055
:105040002C4632463B460A4813F036FD2546B8F159
:10505000000FEBD1FFF7F2FE04460028F6D1002D39
:10506000EED000210846FFF705FDEAE70800000042
:10507000341600240248034BC01AC008704700BF12
:10508000ACBD0408CCBC040810B50C46FFF7F2FF19
:10509000A04203D9024B53F8340010BD0020FCE7B6
:1050A000CCBC040800B589B0059206930023079391
:1050B00062B1074A0C9B02930B9B01930A9B0093DE
:1050C00005ABFFF72BF809B05DF804FB0022F1E710
:1050D0000DF702082DE9F04F8BB004AF05461E46D0
:1050E0008846C1F34A24002C00F0988091460022A3
:1050F000FA603A617A6104230293FB1801930A2350
:10510000009307F10C0321464846FFF707F8B0F576
:10511000006F67D3D9F804C06C4600233B730223A9
:105120007B738AB004AD15F1100226D01221131E34
:1051300018BF012308460429D4BF002603F0010646
:105140000EB1404969610021397002217970082847
:10515000D4BF002103F0010109B1C5F818C00C2823
:10516000D4BF002303F0010313B140F2FF73EB61DE
:1051700082B105F1200300210AE06FF00041D6E77B
:1051800001F118063E4416F8186C03F8016B013162
:105190000129F5D9112822DD122342B104213973E6
:1051A00000217973B9730121F973F868286100212E
:1051B0006FF300016FF341016FF382016FF3C501DB
:1051C000022060F38811C3F30A0363F35321002321
:1051D000C1F313011C482AF019FBA5462DE06FF01E
:1051E0001B03DAE760F35328C0F30A0A0AEB1850EE
:1051F000173020F007008008FFF7FEFD8346B0B1AE
:1052000004230293FB1801930A230093534600F1F1
:10521000100221464846FFF745FF08E004EB115411
:10522000173424F00704A008FFF7E6FD8346334651
:105230004246294658462AF07FFA1C37BD46BDE84B
:10524000F08F00BFA8C9040814BD0408406820B14D
:10525000034BC01A40F3CF0070474FF0FF30704748
:10526000CCBC04080EB400B582B0014603AB53F8C1
:10527000042B0193034801F0DFF902B05DF804EB61
:1052800003B0704743F8020810B584B011F0440F22
:1052900005D01A4B1B6833B9002004B010BD184963
:1052A000FFF7E0FFF9E717490968B2FBF1F2B2FB3B
:1052B000F3FC03FB1C224FF47A7E0EFB02F2B2FBDE
:1052C000F3F403FB14210EFB01F1B1FBF3F10E4AE1
:1052D000A2FB0C32D20A4FF4616303FB12CC0B4BDE
:1052E000A3FB0CE35B0902910194C3EB0311ACEB4C
:1052F000810100910649FFF7B5FFCEE75046002433
:10530000E8C904084C460024C5B3A291898888885E
:10531000F4C9040861B108B52AB1064A52F823203D
:1053200012B9054A00E0044A0449FFF79BFF08BD93
:10533000704700BF98CA040810CA040818CA0408B5
:105340002DE9F04180461746069D079EC1B900240D
:105350002DB12A4610494046FFF784FF044466B148
:10536000099B042B14BF002707F001078FB10B49DD
:1053700032464046FFF776FF04442046BDE8F08100
:10538000074B099A53F822200649FFF76BFF0446A2
:10539000DEE70549ECE700BF30CA04081CCA040870
:1053A000ACCA040828CA040820CA04082DE9F04F32
:1053B00087B005460C46049205939DF84C7001F0A9
:1053C000020B01F0010AC1F3C00801F480792AF050
:1053D00090F918B3024616492846FFF743FF0646E0
:1053E000BBF1000F1CD13A46514628462AF054FA28
:1053F000B9F1000F01D0002311930397129B029380
:10540000119B0193109B00930023049A4146284668
:10541000FFF796FF304407B0BDE8F08F0026DFE7C6
:10542000059A21462846FFF72FFF0644DBE700BF19
:1054300034CA040811F0100F0BD108B511F0200F79
:1054400003D00449FFF70EFF08BD0349FFF70AFF29
:10545000FAE770472CC3040838CA04082DE9F04164
:1054600005460F46164698460699FFF7E3FF0024C7
:10547000444505DA24492846FFF7F4FE0134F7E7EE
:10548000002409E020492846FFF7ECFE0BE01F4905
:105490002846FFF7E7FE01340F2C0CDC002C02DD60
:1054A00014F0070FEED0B442F1D23A5D1849284605
:1054B000FFF7D8FEEFE717492846FFF7D3FE002491
:1054C00009E011492846FFF7CDFE0BE012492846B6
:1054D000FFF7C8FE01340F2C13DC002C02DD14F0A2
:1054E000070FEED0B44207D23A5D0C4B9B5C13F031
:1054F000970FEBD12E22E9E703492846FFF7B2FECA
:10550000E8E7BDE8F08100BFA0E6040844CA04084B
:105510003CCA040848CA04084CCA04084C220508BE
:105520002DE9F04184B004469DF82C500C9F0E9E4E
:1055300095B9012B1ED019484FF0000827B13B4602
:105540002246174929F0F4FCC6B905BB20462AF0CB
:1055500061F904B0BDE8F08103950A9802900193C7
:1055600000920B4600220F992046FFF71FFF80464E
:105570000C48E3E70B484FF00008DFE70F9B009370
:10558000434632460D9920462AF09EF9DDE72A4629
:105590000F9920462AF08CF9D8E700BF7BF8020863
:1055A0003966000843F802082DE9F04383B0064647
:1055B000056842F20F738B4228BF0B46184A05213B
:1055C000684626F073FD04467368D3F804900B27F1
:1055D000DFF8508005E04A4639464046A8473F1A62
:1055E0008044002FF7D17368D3F804806F4605E03C
:1055F000424621463846A847241A0744002CF7D1D2
:1056000073685F681B24084E05E03A462146304621
:10561000A847241A0644002CF7D103B0BDE8F08354
:10562000ECEA04086CCA040850CA0408074B0122BB
:105630001A6004E04008054A13685B001360044BDD
:105640009842F7D8034B1860704700BF4C460024BF
:1056500040420F005046002470B506460D46002417
:1056600005E0315D044883685B6898470134AC42CB
:10567000F7D3284670BD00BFC8B50408014B0360CE
:105680000120704724CB04082DE9F04383B000AF1C
:105690000446D0F80090D0F80480D0F808E06D46B9
:1056A0008AB0694611F1100200F0B5801426131E6D
:1056B00018BF01233046042ED4BF4FF0000C03F076
:1056C000010CBCF1000F01D0594E4E610828D4BF27
:1056D000002603F001060EB1C1F818900C28D4BFC3
:1056E000002603F001060EB1C1F81C801028D4BFBB
:1056F000002303F001030BB1C1F820E0132840F3AD
:105700008D8014233AB10520387100207871B8716A
:10571000F8717868086100216FF300016FF34101AF
:105720006FF382016FF3C501012060F38811C3F3A9
:105730000A0363F353216FF31F5100233D48FFF722
:10574000C9FCAD46D4F80C90D4F81080D4F814E01D
:105750006D468AB0694611F1100262D01426131EFC
:1057600018BF01233046042ED4BF4FF0000C03F0C5
:10577000010CBCF1000F01D02F4E4E610828D4BFA0
:10578000002603F001060EB1C1F818900C28D4BF12
:10579000002603F001060EB1C1F81C801028D4BF0A
:1057A000002303F001030BB1C1F820E013283BDD17
:1057B00014233AB10520387100207871B871F8715E
:1057C0007868086100216FF300016FF341016FF306
:1057D00082016FF3C5014FF0010868F38811C3F32C
:1057E0000A0363F353216FF31F51124E0023304617
:1057F000FFF770FCAD46E369104A4146304629F098
:10580000EDFFA3690E4A4146304629F0E7FF0C3709
:10581000BD46BDE8F0836FF0004648E76FF01B031C
:1058200070E76FF000469AE76FF01B03C1E700BF17
:1058300034CB04084CBD040864CB040894CB0408A2
:10584000A4CB040838B504460D4611B10846FFF74D
:105850001BFF012C04D02946204612F0F5FB38BD71
:10586000EFF30583103B034A0121034829F0B6FFFB
:10587000F1E700BFD4CB04084CBD040830BFFFF7EC
:10588000FDBF00BF38B50446054D2A46054943F023
:10589000C0F9054A0021601943F0E3F938BD00BFA3
:1058A00000000000BCBD04080800000070B50646FA
:1058B000064D074B1D444C1B2046FFF7E3FF083CF9
:1058C000C6F8844005F1080070BD00BF000000006C
:1058D00008000000054B5A699B689A4204D0044AAC
:1058E000536843F080535360704700BF285700242B
:1058F00000ED00E081690D4B5A6942F480725A61F3
:10590000BFF34F8FBFF36F8F31F8021C5A6922F437
:1059100080725A61BFF34F8FBFF36F8F4DF60273E2
:10592000994201D0002070470120704700ED00E04F
:105930004FF0000C83F800C002F07F4CBCF17F4FA9
:1059400014D102F00C0CBCF1080F04D012F0080FB7
:1059500009D00846704708B5054A0121054829F0D5
:1059600033FF002008BD01221A70704700207047E5
:10597000E8CB04084CBD040808B52A4A01212A488E
:1059800029F022FF294B9B6A13F0007F1FD11D20B5
:10599000264B9B6A13F0807F20D1244B9B6A13F423
:1059A000002F22D1214B9B6A13F4802F24D11F4B4F
:1059B0009B6A13F4003F26D11C4B9B6A13F4803F73
:1059C00028D11A4A916A1A4B0B43936208BD194AAF
:1059D0000121154829F0F8FE1E20D9E7164A0121B9
:1059E000114829F0F1FE1F20D7E7144A01210E4883
:1059F00029F0EAFE2120D5E7114A01210A4829F0C1
:105A0000E3FE2220D3E70F4A0121074829F0DCFEFC
:105A10002320D1E70C4A0121034829F0D5FE242098
:105A2000CFE700BF14CC04084CBD040800ED00E033
:105A30000000FFFF2CCC040840CC04085CCC040818
:105A40007CCC0408A4CC0408C0CC040808B500230E
:105A50000B70034A0121034829F0B6FE08BD00BFC0
:105A6000ECCC04084CBD0408B0B582B000AF0F29DF
:105A700033DC374D103900233B7102237B718AB030
:105A8000EC461CF110022AD04FF0120E131E18BF64
:105A900001237046BEF1040FD4BF002403F00104BB
:105AA00014B12C4CCCF8144000243C7002247C70BF
:105AB0000828D4BF002403F001040CB1CCF818501E
:105AC0000C28D4BF002303F001030BB1CCF81C1049
:105AD0009AB10CF1200300210DE01F4DCAE76FF0D1
:105AE000004ED3E701F1080404EB070E1EF808ECA2
:105AF00003F801EB01310129F4D9112824DD122327
:105B00004AB10421397100217971B9710121F9710A
:105B10007868CCF8100000216FF300016FF34101A9
:105B20006FF382016FF3C501012060F38811C3F3A5
:105B30000A0363F353216FF31F5100230748FFF754
:105B4000C9FA0837BD46B0BD6FF01B03D8E700BFE8
:105B500010CD040844CD040828CD04084CBD040829
:105B6000F8B505460F461446374A0121374829F053
:105B70002BFE374B9B6A13F4805F25D11626344BDE
:105B80009B6A13F4006F26D1314B9B6A13F4007F9C
:105B900028D12F4B9B6A13F4806F3FD12C4B9B6A0B
:105BA00013F4807F41D12A4B9B6A13F4005F43D1E9
:105BB000274A936A43F47F4393620121284629F0E0
:105BC00026FF20703046F8BD224A01211F4829F0E7
:105BD000FBFD1726D3E7204A01211C4829F0F4FDDC
:105BE0001826D1E71D4A0121184829F0EDFD184A71
:105BF000936B926A12F4004F01D11926C9E7184A33
:105C00000121124829F0EAFD37B1114A936A23F4C1
:105C1000004393621926BCE71926BAE7114A01210D
:105C20000A4829F0D1FD1A26B8E70F4A0121074892
:105C300029F0CAFD1B26BBE70C4A0121034829F0C5
:105C4000C3FD1C26B4E700BF58CD04084CBD0408B2
:105C500000ED00E070CD040884CD040898CD040860
:105C6000B4CD0408CCCD0408E8CD040800CE040867
:105C70002DE9F04104460F461546464A01214648A3
:105C800029F0A2FD454B9B6A13F0100F3CD1102662
:105C9000424B9B6A13F0080F3DD1404B9B6A13F0B7
:105CA000020F3FD16FF015083C4B9B6A13F0010FB8
:105CB00058D13A4B9B6A13F0200F5AD1374B9B6A4D
:105CC00013F0100F04D1354B9B6A13F0020F04D070
:105CD000324B5B6813F4006F52D1304B9B6A13F068
:105CE000200F04D02D4A536A23F4005353622B4AE9
:105CF000936A43F0FF0393620121204629F087FE57
